{
  "abi": [
    {
      "inputs": [],
      "stateMutability": "nonpayable",
      "type": "constructor"
    },
    {
      "inputs": [],
      "name": "getTotalWaves",
      "outputs": [
        {
          "internalType": "uint256",
          "name": "",
          "type": "uint256"
        }
      ],
      "stateMutability": "view",
      "type": "function"
    },
    {
      "inputs": [],
      "name": "owner",
      "outputs": [
        {
          "internalType": "address",
          "name": "",
          "type": "address"
        }
      ],
      "stateMutability": "view",
      "type": "function"
    },
    {
      "inputs": [],
      "name": "wave",
      "outputs": [],
      "stateMutability": "nonpayable",
      "type": "function"
    }
  ],
  "bytecode": "608060405234801561001057600080fd5b50600180546001600160a01b0319163317905560fa806100316000396000f3fe6080604052348015600f57600080fd5b5060043610603c5760003560e01c80636fe15b441460415780638da5cb5b1460495780639a2cdc08146078575b600080fd5b60476088565b005b600154605b906001600160a01b031681565b6040516001600160a01b0390911681526020015b60405180910390f35b600054604051908152602001606f565b600160008082825460989190609f565b9091555050565b6000821982111560bf57634e487b7160e01b600052601160045260246000fd5b50019056fea26469706673582212203e925340009448a1541702dc0f4a5aa32982c88542e3c48417117791128ac68f64736f6c634300080a0033",
  "bytecodeSha1": "259a05c63e334f5eb0074f7983219373481615cb",
  "compiler": {
    "evm_version": "istanbul",
    "optimizer": {
      "enabled": true,
      "runs": 200
    },
    "version": "0.8.10+commit.fc410830"
  },
  "contractName": "WavePortal",
  "language": "Solidity",
  "natspec": {
    "kind": "dev",
    "methods": {},
    "version": 1
  },
  "opcodes": "PUSH1 0x80 PUSH1 0x40 MSTORE CALLVALUE DUP1 ISZERO PUSH1 0xF JUMPI PUSH1 0x0 DUP1 REVERT JUMPDEST POP PUSH1 0x4 CALLDATASIZE LT PUSH1 0x3C JUMPI PUSH1 0x0 CALLDATALOAD PUSH1 0xE0 SHR DUP1 PUSH4 0x6FE15B44 EQ PUSH1 0x41 JUMPI DUP1 PUSH4 0x8DA5CB5B EQ PUSH1 0x49 JUMPI DUP1 PUSH4 0x9A2CDC08 EQ PUSH1 0x78 JUMPI JUMPDEST PUSH1 0x0 DUP1 REVERT JUMPDEST PUSH1 0x47 PUSH1 0x88 JUMP JUMPDEST STOP JUMPDEST PUSH1 0x1 SLOAD PUSH1 0x5B SWAP1 PUSH1 0x1 PUSH1 0x1 PUSH1 0xA0 SHL SUB AND DUP2 JUMP JUMPDEST PUSH1 0x40 MLOAD PUSH1 0x1 PUSH1 0x1 PUSH1 0xA0 SHL SUB SWAP1 SWAP2 AND DUP2 MSTORE PUSH1 0x20 ADD JUMPDEST PUSH1 0x40 MLOAD DUP1 SWAP2 SUB SWAP1 RETURN JUMPDEST PUSH1 0x0 SLOAD PUSH1 0x40 MLOAD SWAP1 DUP2 MSTORE PUSH1 0x20 ADD PUSH1 0x6F JUMP JUMPDEST PUSH1 0x1 PUSH1 0x0 DUP1 DUP3 DUP3 SLOAD PUSH1 0x98 SWAP2 SWAP1 PUSH1 0x9F JUMP JUMPDEST SWAP1 SWAP2 SSTORE POP POP JUMP JUMPDEST PUSH1 0x0 DUP3 NOT DUP3 GT ISZERO PUSH1 0xBF JUMPI PUSH4 0x4E487B71 PUSH1 0xE0 SHL PUSH1 0x0 MSTORE PUSH1 0x11 PUSH1 0x4 MSTORE PUSH1 0x24 PUSH1 0x0 REVERT JUMPDEST POP ADD SWAP1 JUMP INVALID LOG2 PUSH5 0x6970667358 0x22 SLT KECCAK256 RETURNDATACOPY SWAP3 MSTORE8 BLOCKHASH STOP SWAP5 BASEFEE LOG1 SLOAD OR MUL 0xDC 0xF 0x4A GAS LOG3 0x29 DUP3 0xC8 DUP6 TIMESTAMP 0xE3 0xC4 DUP5 OR GT PUSH24 0x91128AC68F64736F6C634300080A00330000000000000000 ",
  "sha1": "fc8438296c336a8919de2ace8b7cc86c6da39ccd",
  "source": "// SPDX-License-Identifier: UNLICENSED\n\npragma solidity ^0.8.0;\n\ncontract WavePortal {\n    uint256 totalWaves;\n    address public owner;\n\n    constructor() {\n        owner = msg.sender;\n    }\n\n    function wave() public {\n        totalWaves += 1;\n    }\n\n    function getTotalWaves() public view returns (uint256) {\n        return totalWaves;\n    }\n}",
  "sourcePath": "contracts/WavePortal.sol",
  "type": "contract"
}